{
  "contractName": "RefundContract",
  "abi": [
    {
      "inputs": [],
      "stateMutability": "nonpayable",
      "type": "constructor"
    },
    {
      "inputs": [
        {
          "internalType": "address",
          "name": "",
          "type": "address"
        }
      ],
      "name": "empContractStatus",
      "outputs": [
        {
          "internalType": "int8",
          "name": "latitude",
          "type": "int8"
        },
        {
          "internalType": "int8",
          "name": "longitude",
          "type": "int8"
        },
        {
          "internalType": "int8",
          "name": "maxRadius",
          "type": "int8"
        },
        {
          "internalType": "uint8",
          "name": "payment",
          "type": "uint8"
        },
        {
          "internalType": "uint8",
          "name": "compCount",
          "type": "uint8"
        },
        {
          "internalType": "uint8",
          "name": "reqAmount",
          "type": "uint8"
        }
      ],
      "stateMutability": "view",
      "type": "function"
    },
    {
      "inputs": [],
      "name": "employeer",
      "outputs": [
        {
          "internalType": "address",
          "name": "",
          "type": "address"
        }
      ],
      "stateMutability": "view",
      "type": "function"
    },
    {
      "inputs": [
        {
          "internalType": "uint256",
          "name": "",
          "type": "uint256"
        }
      ],
      "name": "employees",
      "outputs": [
        {
          "internalType": "address",
          "name": "",
          "type": "address"
        }
      ],
      "stateMutability": "view",
      "type": "function"
    },
    {
      "inputs": [
        {
          "internalType": "int8",
          "name": "_latitude",
          "type": "int8"
        },
        {
          "internalType": "int8",
          "name": "_longitude",
          "type": "int8"
        }
      ],
      "name": "updateCompCountStatus",
      "outputs": [],
      "stateMutability": "nonpayable",
      "type": "function"
    },
    {
      "inputs": [
        {
          "internalType": "address payable",
          "name": "_to",
          "type": "address"
        }
      ],
      "name": "payEmployee",
      "outputs": [],
      "stateMutability": "payable",
      "type": "function"
    },
    {
      "inputs": [
        {
          "internalType": "address",
          "name": "_empAddr",
          "type": "address"
        },
        {
          "internalType": "int8",
          "name": "_cenLat",
          "type": "int8"
        },
        {
          "internalType": "int8",
          "name": "_cenLon",
          "type": "int8"
        },
        {
          "internalType": "int8",
          "name": "_radius",
          "type": "int8"
        },
        {
          "internalType": "uint8",
          "name": "_payAmount",
          "type": "uint8"
        },
        {
          "internalType": "uint8",
          "name": "_reqAmount",
          "type": "uint8"
        }
      ],
      "name": "setEmployeeAccount",
      "outputs": [],
      "stateMutability": "nonpayable",
      "type": "function"
    },
    {
      "inputs": [],
      "name": "getAdmin",
      "outputs": [
        {
          "internalType": "address",
          "name": "",
          "type": "address"
        }
      ],
      "stateMutability": "view",
      "type": "function"
    }
  ],
  "bytecode": "0x608060405234801561001057600080fd5b5033600160006101000a81548173ffffffffffffffffffffffffffffffffffffffff021916908373ffffffffffffffffffffffffffffffffffffffff16021790555061166a806100616000396000f3fe60806040526004361061008d576000357c0100000000000000000000000000000000000000000000000000000000900480634739326b1161006b5780634739326b146101025780636e9960c31461013f57806380def88d1461016a578063aebf11b2146101ac5761008d565b80631296428a146100925780631f50ad16146100bb5780633c4c59df146100d7575b600080fd5b34801561009e57600080fd5b506100b960048036038101906100b49190610c35565b6101d5565b005b6100d560048036038101906100d09190610d00565b6104fc565b005b3480156100e357600080fd5b506100ec6107cb565b6040516100f99190610d3c565b60405180910390f35b34801561010e57600080fd5b5061012960048036038101906101249190610d8d565b6107f1565b6040516101369190610d3c565b60405180910390f35b34801561014b57600080fd5b50610154610830565b6040516101619190610d3c565b60405180910390f35b34801561017657600080fd5b50610191600480360381019061018c9190610dba565b61085a565b6040516101a396959493929190610e05565b60405180910390f35b3480156101b857600080fd5b506101d360048036038101906101ce9190610e66565b6108e4565b005b600160009054906101000a900473ffffffffffffffffffffffffffffffffffffffff1673ffffffffffffffffffffffffffffffffffffffff163373ffffffffffffffffffffffffffffffffffffffff1614610265576040517f08c379a000000000000000000000000000000000000000000000000000000000815260040161025c90610f29565b60405180910390fd5b6000869080600181540180825580915050600190039060005260206000200160009091909190916101000a81548173ffffffffffffffffffffffffffffffffffffffff021916908373ffffffffffffffffffffffffffffffffffffffff16021790555084600260008873ffffffffffffffffffffffffffffffffffffffff1673ffffffffffffffffffffffffffffffffffffffff16815260200190815260200160002060000160006101000a81548160ff021916908360000b60ff16021790555083600260008873ffffffffffffffffffffffffffffffffffffffff1673ffffffffffffffffffffffffffffffffffffffff16815260200190815260200160002060000160016101000a81548160ff021916908360000b60ff16021790555082600260008873ffffffffffffffffffffffffffffffffffffffff1673ffffffffffffffffffffffffffffffffffffffff16815260200190815260200160002060000160026101000a81548160ff021916908360000b60ff16021790555081600260008873ffffffffffffffffffffffffffffffffffffffff1673ffffffffffffffffffffffffffffffffffffffff16815260200190815260200160002060000160036101000a81548160ff021916908360ff1602179055506000600260008873ffffffffffffffffffffffffffffffffffffffff1673ffffffffffffffffffffffffffffffffffffffff16815260200190815260200160002060000160046101000a81548160ff021916908360ff16021790555080600260008873ffffffffffffffffffffffffffffffffffffffff1673ffffffffffffffffffffffffffffffffffffffff16815260200190815260200160002060000160056101000a81548160ff021916908360ff160217905550505050505050565b808073ffffffffffffffffffffffffffffffffffffffff163373ffffffffffffffffffffffffffffffffffffffff161461056b576040517f08c379a000000000000000000000000000000000000000000000000000000000815260040161056290610fbb565b60405180910390fd5b6000805b600080549050811015610609578273ffffffffffffffffffffffffffffffffffffffff16600082815481106105a7576105a6610fdb565b5b9060005260206000200160009054906101000a900473ffffffffffffffffffffffffffffffffffffffff1673ffffffffffffffffffffffffffffffffffffffff16036105f65760019150610609565b808061060190611039565b91505061056f565b508061064a576040517f08c379a0000000000000000000000000000000000000000000000000000000008152600401610641906110f3565b60405180910390fd5b600260008473ffffffffffffffffffffffffffffffffffffffff1673ffffffffffffffffffffffffffffffffffffffff16815260200190815260200160002060000160059054906101000a900460ff1660ff16600260008573ffffffffffffffffffffffffffffffffffffffff1673ffffffffffffffffffffffffffffffffffffffff16815260200190815260200160002060000160049054906101000a900460ff1660ff16116106fa57600080fd5b60008373ffffffffffffffffffffffffffffffffffffffff166108fc600260008773ffffffffffffffffffffffffffffffffffffffff1673ffffffffffffffffffffffffffffffffffffffff16815260200190815260200160002060000160039054906101000a900460ff1660ff169081150290604051600060405180830381858888f193505050509050806107c5576040517f08c379a00000000000000000000000000000000000000000000000000000000081526004016107bc9061115f565b60405180910390fd5b50505050565b600160009054906101000a900473ffffffffffffffffffffffffffffffffffffffff1681565b6000818154811061080157600080fd5b906000526020600020016000915054906101000a900473ffffffffffffffffffffffffffffffffffffffff1681565b6000600160009054906101000a900473ffffffffffffffffffffffffffffffffffffffff16905090565b60026020528060005260406000206000915090508060000160009054906101000a900460000b908060000160019054906101000a900460000b908060000160029054906101000a900460000b908060000160039054906101000a900460ff16908060000160049054906101000a900460ff16908060000160059054906101000a900460ff16905086565b60006108f08383610a08565b9050600260003373ffffffffffffffffffffffffffffffffffffffff1673ffffffffffffffffffffffffffffffffffffffff16815260200190815260200160002060000160029054906101000a900460000b60000b811215610a03576001600260003373ffffffffffffffffffffffffffffffffffffffff1673ffffffffffffffffffffffffffffffffffffffff16815260200190815260200160002060000160049054906101000a900460ff166109a8919061117f565b600260003373ffffffffffffffffffffffffffffffffffffffff1673ffffffffffffffffffffffffffffffffffffffff16815260200190815260200160002060000160046101000a81548160ff021916908360ff1602179055505b505050565b600080600260003373ffffffffffffffffffffffffffffffffffffffff1673ffffffffffffffffffffffffffffffffffffffff16815260200190815260200160002060000160009054906101000a900460000b84610a6691906111b6565b60000b90506000600260003373ffffffffffffffffffffffffffffffffffffffff1673ffffffffffffffffffffffffffffffffffffffff16815260200190815260200160002060000160019054906101000a900460000b84610ac891906111b6565b60000b9050610af9600282610add9190611384565b600284610aea9190611384565b610af491906113f0565b610b03565b9250505092915050565b6000806002600184610b1591906113f0565b610b1f91906114b3565b90508291505b81811215610b5a578091506002808385610b3f91906114b3565b610b49919061151d565b610b5391906114b3565b9050610b25565b50919050565b600080fd5b600073ffffffffffffffffffffffffffffffffffffffff82169050919050565b6000610b9082610b65565b9050919050565b610ba081610b85565b8114610bab57600080fd5b50565b600081359050610bbd81610b97565b92915050565b60008160000b9050919050565b610bd981610bc3565b8114610be457600080fd5b50565b600081359050610bf681610bd0565b92915050565b600060ff82169050919050565b610c1281610bfc565b8114610c1d57600080fd5b50565b600081359050610c2f81610c09565b92915050565b60008060008060008060c08789031215610c5257610c51610b60565b5b6000610c6089828a01610bae565b9650506020610c7189828a01610be7565b9550506040610c8289828a01610be7565b9450506060610c9389828a01610be7565b9350506080610ca489828a01610c20565b92505060a0610cb589828a01610c20565b9150509295509295509295565b6000610ccd82610b65565b9050919050565b610cdd81610cc2565b8114610ce857600080fd5b50565b600081359050610cfa81610cd4565b92915050565b600060208284031215610d1657610d15610b60565b5b6000610d2484828501610ceb565b91505092915050565b610d3681610b85565b82525050565b6000602082019050610d516000830184610d2d565b92915050565b6000819050919050565b610d6a81610d57565b8114610d7557600080fd5b50565b600081359050610d8781610d61565b92915050565b600060208284031215610da357610da2610b60565b5b6000610db184828501610d78565b91505092915050565b600060208284031215610dd057610dcf610b60565b5b6000610dde84828501610bae565b91505092915050565b610df081610bc3565b82525050565b610dff81610bfc565b82525050565b600060c082019050610e1a6000830189610de7565b610e276020830188610de7565b610e346040830187610de7565b610e416060830186610df6565b610e4e6080830185610df6565b610e5b60a0830184610df6565b979650505050505050565b60008060408385031215610e7d57610e7c610b60565b5b6000610e8b85828601610be7565b9250506020610e9c85828601610be7565b9150509250929050565b600082825260208201905092915050565b7f4f6e6c7920656d706c6f79656572206861732061636365737320746f2074686960008201527f732066756e6374696f6e00000000000000000000000000000000000000000000602082015250565b6000610f13602a83610ea6565b9150610f1e82610eb7565b604082019050919050565b60006020820190508181036000830152610f4281610f06565b9050919050565b7f4f6e6c7920616e20656d706c6f796565206861732061636365737320746f207460008201527f6869732066756e6374696f6e0000000000000000000000000000000000000000602082015250565b6000610fa5602c83610ea6565b9150610fb082610f49565b604082019050919050565b60006020820190508181036000830152610fd481610f98565b9050919050565b7f4e487b7100000000000000000000000000000000000000000000000000000000600052603260045260246000fd5b7f4e487b7100000000000000000000000000000000000000000000000000000000600052601160045260246000fd5b600061104482610d57565b91507fffffffffffffffffffffffffffffffffffffffffffffffffffffffffffffffff82036110765761107561100a565b5b600182019050919050565b7f4f6e6c7920616e2020656d706c6f796565206861732061636365737320746f2060008201527f746869732066756e6374696f6e00000000000000000000000000000000000000602082015250565b60006110dd602d83610ea6565b91506110e882611081565b604082019050919050565b6000602082019050818103600083015261110c816110d0565b9050919050565b7f4661696c656420746f2073656e64204574686572000000000000000000000000600082015250565b6000611149601483610ea6565b915061115482611113565b602082019050919050565b600060208201905081810360008301526111788161113c565b9050919050565b600061118a82610bfc565b915061119583610bfc565b92508260ff038211156111ab576111aa61100a565b5b828201905092915050565b60006111c182610bc3565b91506111cc83610bc3565b9250827fffffffffffffffffffffffffffffffffffffffffffffffffffffffffffffff80018212600084121516156112075761120661100a565b5b82607f0182136000841216156112205761121f61100a565b5b828203905092915050565b6000600282049050919050565b6000808291508390505b60018511156112825780860481111561125e5761125d61100a565b5b600185161561126d5780820291505b808102905061127b8561122b565b9450611242565b94509492505050565b600082600081146112a357600181146112ad576112b6565b6001915050611372565b82915050611372565b50816112c55760009050611372565b6001905060008213600181146112e257600081146112fa5761130e565b8286048311156112f5576112f461100a565b5b61130e565b82860583121561130d5761130c61100a565b5b5b50600183161561131c578190505b818202915061132a8361122b565b925061133885848484611238565b9250905081850481116000821316156113545761135361100a565b5b818405811260008212161561136c5761136b61100a565b5b81810290505b949350505050565b6000819050919050565b600061138f8261137a565b915061139a83610bfc565b92506113e87f7fffffffffffffffffffffffffffffffffffffffffffffffffffffffffffffff7f8000000000000000000000000000000000000000000000000000000000000000858561128b565b905092915050565b60006113fb8261137a565b91506114068361137a565b9250817f7fffffffffffffffffffffffffffffffffffffffffffffffffffffffffffffff038313600083121516156114415761144061100a565b5b817f80000000000000000000000000000000000000000000000000000000000000000383126000831216156114795761147861100a565b5b828201905092915050565b7f4e487b7100000000000000000000000000000000000000000000000000000000600052601260045260246000fd5b60006114be8261137a565b91506114c98361137a565b9250826114d9576114d8611484565b5b600160000383147f8000000000000000000000000000000000000000000000000000000000000000831416156115125761151161100a565b5b828205905092915050565b60006115288261137a565b91506115338361137a565b9250827f7fffffffffffffffffffffffffffffffffffffffffffffffffffffffffffffff04821160008413600084131616156115725761157161100a565b5b817f800000000000000000000000000000000000000000000000000000000000000005831260008412600084131616156115af576115ae61100a565b5b827f800000000000000000000000000000000000000000000000000000000000000005821260008413600084121616156115ec576115eb61100a565b5b827f7fffffffffffffffffffffffffffffffffffffffffffffffffffffffffffffff05821260008412600084121616156116295761162861100a565b5b82820290509291505056fea26469706673582212202ecaaa60f26c34f66d6ee564116df00ca8aa8c71eb70ad2be6fddd5f984231ac64736f6c634300080d0033",
  "immutableReferences": {},
  "source": "// SPDX-License-Identifier: SEE LICENSE IN LICENSE\npragma solidity ^0.8.13;\n\ncontract RefundContract {\n    address[] public employees;\n    address public employeer;\n\n    struct ContractStatus {\n        int8 latitude;\n        int8 longitude;\n        int8 maxRadius;\n        uint8 payment;\n        uint8 compCount;\n        uint8 reqAmount;\n    }\n    mapping (address => ContractStatus) public empContractStatus;\n    constructor() {\n        employeer = msg.sender;\n    }\n    \n    modifier onlyEmployeer() {\n        require(msg.sender == employeer, \"Only employeer has access to this function\");\n        _;\n    }\n\n    modifier onlyEmployee(address _addr) {\n        require(msg.sender == _addr, \"Only an employee has access to this function\");\n        bool exists = false;\n\n        for (uint256 i = 0; i < employees.length; i++) {\n            if (employees[i] == _addr) {\n                exists = true;\n                break;\n            }\n        }\n\n        require(exists, \"Only an  employee has access to this function\");\n        _;\n    }\n    \n    // Modifiers can take inputs. This modifier checks that the\n    // address passed in is not the zero address.\n    modifier validAddress(address _addr) {\n        require(_addr != address(0), \"Not valid address\");\n        _;\n    }\n\n    function sqrt(int256 input) private pure returns (int256  output ) {\n        int256 temp = (input + 1) / 2;\n        output = input;\n        while (temp < output) {\n            output = temp;\n            temp = ((input / output) * 2) / 2;\n        }\n    }\n\n    function calculateDistance(int8 _latitude, int8 _longitude) private view  returns (int256 dist) {\n        int256 x = _latitude - empContractStatus[msg.sender].latitude;\n        int256 y = _longitude - empContractStatus[msg.sender].longitude;\n        dist = sqrt(x**2 + y**2);\n        return dist;\n    }\n    function updateCompCountStatus(\n        int8 _latitude, \n        int8 _longitude\n        ) public {\n            int256 dist = calculateDistance(_latitude, _longitude);\n            if (dist < empContractStatus[msg.sender].maxRadius) {\n                empContractStatus[msg.sender].compCount = empContractStatus[msg.sender].compCount + 1;\n            }\n    }\n\n    function payEmployee(address payable _to) public payable onlyEmployee(_to) {\n        require(empContractStatus[_to].compCount > empContractStatus[_to].reqAmount);\n        bool sent = _to.send(empContractStatus[_to].payment);\n        require(sent, \"Failed to send Ether\");\n    }\n\n        ///////////////////////////////////////////////////////////////\n    // only employer has access\n    function setEmployeeAccount(\n        address _empAddr,\n        int8 _cenLat,\n        int8 _cenLon,\n        int8 _radius,\n        uint8 _payAmount,\n        uint8 _reqAmount\n        // Should also set the duration the contract will be checking for\n        ) public onlyEmployeer() {\n            employees.push(_empAddr); // should delete if it is already in the list\n            empContractStatus[_empAddr].latitude = _cenLat;\n            empContractStatus[_empAddr].longitude = _cenLon;\n            empContractStatus[_empAddr].maxRadius = _radius;\n            empContractStatus[_empAddr].payment = _payAmount;\n            empContractStatus[_empAddr].compCount = 0;\n            empContractStatus[_empAddr].reqAmount = _reqAmount;\n    }\n\n    function getAdmin() public view returns(address) {\n        return employeer;\n    }\n}",
  "sourcePath": "/Users/user/TENAC/week-5-12/week10/Refund-by-Location-Smart-Contract/flutterdapp/contracts/LocationBasedRefund.sol",
  "compiler": {
    "name": "solc",
    "version": "0.8.13+commit.abaa5c0e.Emscripten.clang"
  },
  "schemaVersion": "3.4.10",
  "updatedAt": "2022-10-27T16:56:05.108Z",
  "devdoc": {
    "kind": "dev",
    "methods": {},
    "version": 1
  },
  "userdoc": {
    "kind": "user",
    "methods": {},
    "version": 1
  }
}