{
  "contractName": "RefundContract",
  "abi": [
    {
      "inputs": [],
      "stateMutability": "nonpayable",
      "type": "constructor"
    },
    {
      "inputs": [
        {
          "internalType": "address",
          "name": "",
          "type": "address"
        }
      ],
      "name": "empContractStatus",
      "outputs": [
        {
          "internalType": "int8",
          "name": "latitude",
          "type": "int8"
        },
        {
          "internalType": "int8",
          "name": "longitude",
          "type": "int8"
        },
        {
          "internalType": "int8",
          "name": "maxRadius",
          "type": "int8"
        },
        {
          "internalType": "uint8",
          "name": "payment",
          "type": "uint8"
        },
        {
          "internalType": "uint8",
          "name": "compCount",
          "type": "uint8"
        },
        {
          "internalType": "uint8",
          "name": "reqAmount",
          "type": "uint8"
        }
      ],
      "stateMutability": "view",
      "type": "function",
      "constant": true
    },
    {
      "inputs": [],
      "name": "employeer",
      "outputs": [
        {
          "internalType": "address",
          "name": "",
          "type": "address"
        }
      ],
      "stateMutability": "view",
      "type": "function",
      "constant": true
    },
    {
      "inputs": [
        {
          "internalType": "uint256",
          "name": "",
          "type": "uint256"
        }
      ],
      "name": "employees",
      "outputs": [
        {
          "internalType": "address",
          "name": "",
          "type": "address"
        }
      ],
      "stateMutability": "view",
      "type": "function",
      "constant": true
    },
    {
      "inputs": [
        {
          "internalType": "int8",
          "name": "_latitude",
          "type": "int8"
        },
        {
          "internalType": "int8",
          "name": "_longitude",
          "type": "int8"
        }
      ],
      "name": "updateCompCountStatus",
      "outputs": [],
      "stateMutability": "nonpayable",
      "type": "function"
    },
    {
      "inputs": [
        {
          "internalType": "address payable",
          "name": "_to",
          "type": "address"
        }
      ],
      "name": "payEmployee",
      "outputs": [],
      "stateMutability": "payable",
      "type": "function",
      "payable": true
    },
    {
      "inputs": [
        {
          "internalType": "address",
          "name": "_empAddr",
          "type": "address"
        },
        {
          "internalType": "int8",
          "name": "_latitude",
          "type": "int8"
        },
        {
          "internalType": "int8",
          "name": "_longitude",
          "type": "int8"
        },
        {
          "internalType": "int8",
          "name": "_maxRadius",
          "type": "int8"
        },
        {
          "internalType": "uint8",
          "name": "_payAmount",
          "type": "uint8"
        },
        {
          "internalType": "uint8",
          "name": "_reqAmount",
          "type": "uint8"
        }
      ],
      "name": "setEmployeeAccount",
      "outputs": [],
      "stateMutability": "nonpayable",
      "type": "function"
    },
    {
      "inputs": [],
      "name": "getAdmin",
      "outputs": [
        {
          "internalType": "address",
          "name": "",
          "type": "address"
        }
      ],
      "stateMutability": "view",
      "type": "function",
      "constant": true
    },
    {
      "inputs": [],
      "name": "getEmployees",
      "outputs": [
        {
          "internalType": "address[]",
          "name": "",
          "type": "address[]"
        }
      ],
      "stateMutability": "view",
      "type": "function",
      "constant": true
    }
  ],
  "bytecode": "0x608060405234801561001057600080fd5b5033600160006101000a81548173ffffffffffffffffffffffffffffffffffffffff021916908373ffffffffffffffffffffffffffffffffffffffff160217905550611835806100616000396000f3fe608060405260043610610098576000357c0100000000000000000000000000000000000000000000000000000000900480634abefa361161006b5780634abefa361461014a5780636e9960c31461017557806380def88d146101a0578063aebf11b2146101e257610098565b80631296428a1461009d5780631f50ad16146100c65780633c4c59df146100e25780634739326b1461010d575b600080fd5b3480156100a957600080fd5b506100c460048036038101906100bf9190610cfa565b61020b565b005b6100e060048036038101906100db9190610dc5565b610532565b005b3480156100ee57600080fd5b506100f7610802565b6040516101049190610e01565b60405180910390f35b34801561011957600080fd5b50610134600480360381019061012f9190610e52565b610828565b6040516101419190610e01565b60405180910390f35b34801561015657600080fd5b5061015f610867565b60405161016c9190610f3d565b60405180910390f35b34801561018157600080fd5b5061018a6108f5565b6040516101979190610e01565b60405180910390f35b3480156101ac57600080fd5b506101c760048036038101906101c29190610f5f565b61091f565b6040516101d996959493929190610faa565b60405180910390f35b3480156101ee57600080fd5b506102096004803603810190610204919061100b565b6109a9565b005b600160009054906101000a900473ffffffffffffffffffffffffffffffffffffffff1673ffffffffffffffffffffffffffffffffffffffff163373ffffffffffffffffffffffffffffffffffffffff161461029b576040517f08c379a0000000000000000000000000000000000000000000000000000000008152600401610292906110ce565b60405180910390fd5b6000869080600181540180825580915050600190039060005260206000200160009091909190916101000a81548173ffffffffffffffffffffffffffffffffffffffff021916908373ffffffffffffffffffffffffffffffffffffffff16021790555084600260008873ffffffffffffffffffffffffffffffffffffffff1673ffffffffffffffffffffffffffffffffffffffff16815260200190815260200160002060000160006101000a81548160ff021916908360000b60ff16021790555083600260008873ffffffffffffffffffffffffffffffffffffffff1673ffffffffffffffffffffffffffffffffffffffff16815260200190815260200160002060000160016101000a81548160ff021916908360000b60ff16021790555082600260008873ffffffffffffffffffffffffffffffffffffffff1673ffffffffffffffffffffffffffffffffffffffff16815260200190815260200160002060000160026101000a81548160ff021916908360000b60ff16021790555081600260008873ffffffffffffffffffffffffffffffffffffffff1673ffffffffffffffffffffffffffffffffffffffff16815260200190815260200160002060000160036101000a81548160ff021916908360ff1602179055506000600260008873ffffffffffffffffffffffffffffffffffffffff1673ffffffffffffffffffffffffffffffffffffffff16815260200190815260200160002060000160046101000a81548160ff021916908360ff16021790555080600260008873ffffffffffffffffffffffffffffffffffffffff1673ffffffffffffffffffffffffffffffffffffffff16815260200190815260200160002060000160056101000a81548160ff021916908360ff160217905550505050505050565b8060008173ffffffffffffffffffffffffffffffffffffffff163373ffffffffffffffffffffffffffffffffffffffff160361056d57600190505b60005b60008054905081101561060a578273ffffffffffffffffffffffffffffffffffffffff16600082815481106105a8576105a76110ee565b5b9060005260206000200160009054906101000a900473ffffffffffffffffffffffffffffffffffffffff1673ffffffffffffffffffffffffffffffffffffffff16036105f7576001915061060a565b80806106029061114c565b915050610570565b508061064b576040517f08c379a000000000000000000000000000000000000000000000000000000000815260040161064290611206565b60405180910390fd5b600260008473ffffffffffffffffffffffffffffffffffffffff1673ffffffffffffffffffffffffffffffffffffffff16815260200190815260200160002060000160059054906101000a900460ff1660ff16600260008573ffffffffffffffffffffffffffffffffffffffff1673ffffffffffffffffffffffffffffffffffffffff16815260200190815260200160002060000160049054906101000a900460ff1660ff1611610731576040517f08c379a0000000000000000000000000000000000000000000000000000000008152600401610728906112be565b60405180910390fd5b60008373ffffffffffffffffffffffffffffffffffffffff166108fc600260008773ffffffffffffffffffffffffffffffffffffffff1673ffffffffffffffffffffffffffffffffffffffff16815260200190815260200160002060000160039054906101000a900460ff1660ff169081150290604051600060405180830381858888f193505050509050806107fc576040517f08c379a00000000000000000000000000000000000000000000000000000000081526004016107f39061132a565b60405180910390fd5b50505050565b600160009054906101000a900473ffffffffffffffffffffffffffffffffffffffff1681565b6000818154811061083857600080fd5b906000526020600020016000915054906101000a900473ffffffffffffffffffffffffffffffffffffffff1681565b606060008054806020026020016040519081016040528092919081815260200182805480156108eb57602002820191906000526020600020905b8160009054906101000a900473ffffffffffffffffffffffffffffffffffffffff1673ffffffffffffffffffffffffffffffffffffffff16815260200190600101908083116108a1575b5050505050905090565b6000600160009054906101000a900473ffffffffffffffffffffffffffffffffffffffff16905090565b60026020528060005260406000206000915090508060000160009054906101000a900460000b908060000160019054906101000a900460000b908060000160029054906101000a900460000b908060000160039054906101000a900460ff16908060000160049054906101000a900460ff16908060000160059054906101000a900460ff16905086565b60006109b58383610acd565b9050600260003373ffffffffffffffffffffffffffffffffffffffff1673ffffffffffffffffffffffffffffffffffffffff16815260200190815260200160002060000160029054906101000a900460000b60000b811215610ac8576001600260003373ffffffffffffffffffffffffffffffffffffffff1673ffffffffffffffffffffffffffffffffffffffff16815260200190815260200160002060000160049054906101000a900460ff16610a6d919061134a565b600260003373ffffffffffffffffffffffffffffffffffffffff1673ffffffffffffffffffffffffffffffffffffffff16815260200190815260200160002060000160046101000a81548160ff021916908360ff1602179055505b505050565b600080600260003373ffffffffffffffffffffffffffffffffffffffff1673ffffffffffffffffffffffffffffffffffffffff16815260200190815260200160002060000160009054906101000a900460000b84610b2b9190611381565b60000b90506000600260003373ffffffffffffffffffffffffffffffffffffffff1673ffffffffffffffffffffffffffffffffffffffff16815260200190815260200160002060000160019054906101000a900460000b84610b8d9190611381565b60000b9050610bbe600282610ba2919061154f565b600284610baf919061154f565b610bb991906115bb565b610bc8565b9250505092915050565b6000806002600184610bda91906115bb565b610be4919061167e565b90508291505b81811215610c1f578091506002808385610c04919061167e565b610c0e91906116e8565b610c18919061167e565b9050610bea565b50919050565b600080fd5b600073ffffffffffffffffffffffffffffffffffffffff82169050919050565b6000610c5582610c2a565b9050919050565b610c6581610c4a565b8114610c7057600080fd5b50565b600081359050610c8281610c5c565b92915050565b60008160000b9050919050565b610c9e81610c88565b8114610ca957600080fd5b50565b600081359050610cbb81610c95565b92915050565b600060ff82169050919050565b610cd781610cc1565b8114610ce257600080fd5b50565b600081359050610cf481610cce565b92915050565b60008060008060008060c08789031215610d1757610d16610c25565b5b6000610d2589828a01610c73565b9650506020610d3689828a01610cac565b9550506040610d4789828a01610cac565b9450506060610d5889828a01610cac565b9350506080610d6989828a01610ce5565b92505060a0610d7a89828a01610ce5565b9150509295509295509295565b6000610d9282610c2a565b9050919050565b610da281610d87565b8114610dad57600080fd5b50565b600081359050610dbf81610d99565b92915050565b600060208284031215610ddb57610dda610c25565b5b6000610de984828501610db0565b91505092915050565b610dfb81610c4a565b82525050565b6000602082019050610e166000830184610df2565b92915050565b6000819050919050565b610e2f81610e1c565b8114610e3a57600080fd5b50565b600081359050610e4c81610e26565b92915050565b600060208284031215610e6857610e67610c25565b5b6000610e7684828501610e3d565b91505092915050565b600081519050919050565b600082825260208201905092915050565b6000819050602082019050919050565b610eb481610c4a565b82525050565b6000610ec68383610eab565b60208301905092915050565b6000602082019050919050565b6000610eea82610e7f565b610ef48185610e8a565b9350610eff83610e9b565b8060005b83811015610f30578151610f178882610eba565b9750610f2283610ed2565b925050600181019050610f03565b5085935050505092915050565b60006020820190508181036000830152610f578184610edf565b905092915050565b600060208284031215610f7557610f74610c25565b5b6000610f8384828501610c73565b91505092915050565b610f9581610c88565b82525050565b610fa481610cc1565b82525050565b600060c082019050610fbf6000830189610f8c565b610fcc6020830188610f8c565b610fd96040830187610f8c565b610fe66060830186610f9b565b610ff36080830185610f9b565b61100060a0830184610f9b565b979650505050505050565b6000806040838503121561102257611021610c25565b5b600061103085828601610cac565b925050602061104185828601610cac565b9150509250929050565b600082825260208201905092915050565b7f4f6e6c7920656d706c6f79656572206861732061636365737320746f2074686960008201527f732066756e6374696f6e00000000000000000000000000000000000000000000602082015250565b60006110b8602a8361104b565b91506110c38261105c565b604082019050919050565b600060208201905081810360008301526110e7816110ab565b9050919050565b7f4e487b7100000000000000000000000000000000000000000000000000000000600052603260045260246000fd5b7f4e487b7100000000000000000000000000000000000000000000000000000000600052601160045260246000fd5b600061115782610e1c565b91507fffffffffffffffffffffffffffffffffffffffffffffffffffffffffffffffff82036111895761118861111d565b5b600182019050919050565b7f4f6e6c7920616e2020656d706c6f796565206861732061636365737320746f2060008201527f746869732066756e6374696f6e5f320000000000000000000000000000000000602082015250565b60006111f0602f8361104b565b91506111fb82611194565b604082019050919050565b6000602082019050818103600083015261121f816111e3565b9050919050565b7f54686520656d706c6f79656520646964206e6f742072656d61696e20696e206360008201527f6f6d706c69616e6365207769746820616c6c207468652061677265656d656e7460208201527f732e000000000000000000000000000000000000000000000000000000000000604082015250565b60006112a860428361104b565b91506112b382611226565b606082019050919050565b600060208201905081810360008301526112d78161129b565b9050919050565b7f4661696c656420746f2073656e64204574686572000000000000000000000000600082015250565b600061131460148361104b565b915061131f826112de565b602082019050919050565b6000602082019050818103600083015261134381611307565b9050919050565b600061135582610cc1565b915061136083610cc1565b92508260ff038211156113765761137561111d565b5b828201905092915050565b600061138c82610c88565b915061139783610c88565b9250827fffffffffffffffffffffffffffffffffffffffffffffffffffffffffffffff80018212600084121516156113d2576113d161111d565b5b82607f0182136000841216156113eb576113ea61111d565b5b828203905092915050565b6000600282049050919050565b6000808291508390505b600185111561144d578086048111156114295761142861111d565b5b60018516156114385780820291505b8081029050611446856113f6565b945061140d565b94509492505050565b6000826000811461146e576001811461147857611481565b600191505061153d565b8291505061153d565b5081611490576000905061153d565b6001905060008213600181146114ad57600081146114c5576114d9565b8286048311156114c0576114bf61111d565b5b6114d9565b8286058312156114d8576114d761111d565b5b5b5060018316156114e7578190505b81820291506114f5836113f6565b925061150385848484611403565b92509050818504811160008213161561151f5761151e61111d565b5b81840581126000821216156115375761153661111d565b5b81810290505b949350505050565b6000819050919050565b600061155a82611545565b915061156583610cc1565b92506115b37f7fffffffffffffffffffffffffffffffffffffffffffffffffffffffffffffff7f80000000000000000000000000000000000000000000000000000000000000008585611456565b905092915050565b60006115c682611545565b91506115d183611545565b9250817f7fffffffffffffffffffffffffffffffffffffffffffffffffffffffffffffff0383136000831215161561160c5761160b61111d565b5b817f80000000000000000000000000000000000000000000000000000000000000000383126000831216156116445761164361111d565b5b828201905092915050565b7f4e487b7100000000000000000000000000000000000000000000000000000000600052601260045260246000fd5b600061168982611545565b915061169483611545565b9250826116a4576116a361164f565b5b600160000383147f8000000000000000000000000000000000000000000000000000000000000000831416156116dd576116dc61111d565b5b828205905092915050565b60006116f382611545565b91506116fe83611545565b9250827f7fffffffffffffffffffffffffffffffffffffffffffffffffffffffffffffff048211600084136000841316161561173d5761173c61111d565b5b817f8000000000000000000000000000000000000000000000000000000000000000058312600084126000841316161561177a5761177961111d565b5b827f800000000000000000000000000000000000000000000000000000000000000005821260008413600084121616156117b7576117b661111d565b5b827f7fffffffffffffffffffffffffffffffffffffffffffffffffffffffffffffff05821260008412600084121616156117f4576117f361111d565b5b82820290509291505056fea2646970667358221220921bfbc010b0275cd81ee4fce5ff49282e2b7ff9b67d5d2c08b3795bc8d943ac64736f6c634300080d0033",
  "immutableReferences": {},
  "source": "// SPDX-License-Identifier: SEE LICENSE IN LICENSE\npragma solidity ^0.8.13;\n\n\ncontract RefundContract {\n\n    address[] public employees;\n    address public employeer;\n\n    struct ContractStatus {\n        int8 latitude;\n        int8 longitude;\n        int8 maxRadius;\n        uint8 payment;\n        uint8 compCount;\n        uint8 reqAmount;\n    }\n    mapping (address => ContractStatus) public empContractStatus;\n    constructor() {\n        employeer = msg.sender;\n    }\n    \n    modifier onlyEmployeer() {\n        require(msg.sender == employeer, \"Only employeer has access to this function\");\n        _;\n    }\n\n    modifier onlyEmployee(address _addr) {\n\n        bool exists = false;\n\n        if(msg.sender == _addr){\n            exists = true;\n        }\n\n        for (uint256 i = 0; i < employees.length; i++) {\n            if (employees[i] == _addr) {\n                exists = true;\n                break;\n            }\n        }\n\n        require(exists, \"Only an  employee has access to this function_2\");\n        _;\n    }\n    \n    // Modifiers can take inputs. This modifier checks that the\n    // address passed in is not the zero address.\n    modifier validAddress(address _addr) {\n        require(_addr != address(0), \"Not valid address\");\n        _;\n    }\n\n    function getSqrt(int256 input) private pure returns (int256  output ) {\n        int256 temp = (input + 1) / 2;\n        output = input;\n        while (temp < output) {\n            output = temp;\n            temp = ((input / output) * 2) / 2;\n        }\n    }\n\n    function calculateDistance(int8 _latitude, int8 _longitude) private view  returns (int256 dist) {\n        int256 x = _latitude - empContractStatus[msg.sender].latitude;\n        int256 y = _longitude - empContractStatus[msg.sender].longitude;\n        dist = getSqrt(x**2 + y**2);\n        return dist;\n    }\n    function updateCompCountStatus(int8 _latitude, int8 _longitude) public {\n            int256 dist = calculateDistance(_latitude, _longitude);\n            if (dist < empContractStatus[msg.sender].maxRadius) {\n                empContractStatus[msg.sender].compCount = empContractStatus[msg.sender].compCount + 1;\n            }\n    }\n\n    function payEmployee(address payable _to) public payable onlyEmployee(_to) {\n        require(empContractStatus[_to].compCount > empContractStatus[_to].reqAmount,\n        \"The employee did not remain in compliance with all the agreements.\");\n        bool sent = _to.send(empContractStatus[_to].payment);\n        require(sent, \"Failed to send Ether\");\n    }\n\n    //////////////////////only employer has access////////////////////////////////// \n    function setEmployeeAccount(\n        address _empAddr,\n        int8 _latitude,\n        int8 _longitude,\n        int8 _maxRadius,\n        uint8 _payAmount,\n        uint8 _reqAmount\n        // Should also set the duration the contract will be checking for\n        ) public onlyEmployeer() {\n            employees.push(_empAddr); // should delete if it is already in the list\n            empContractStatus[_empAddr].latitude = _latitude;\n            empContractStatus[_empAddr].longitude = _longitude;\n            empContractStatus[_empAddr].maxRadius = _maxRadius;\n            empContractStatus[_empAddr].payment = _payAmount;\n            empContractStatus[_empAddr].compCount = 0;\n            empContractStatus[_empAddr].reqAmount = _reqAmount;\n    }\n\n    function getAdmin() public view returns(address) {\n        return employeer;\n    }\n    function getEmployees() public view returns(address[] memory){\n        return employees;\n    }\n}",
  "sourcePath": "/Users/user/TENAC/week-5-12/week10/Refund-by-Location-Smart-Contract/flutterdapp/contracts/LocationBasedRefund.sol",
  "compiler": {
    "name": "solc",
    "version": "0.8.13+commit.abaa5c0e.Emscripten.clang"
  },
  "schemaVersion": "3.4.10",
  "updatedAt": "2022-10-30T07:28:41.028Z",
  "networkType": "ethereum",
  "devdoc": {
    "kind": "dev",
    "methods": {},
    "version": 1
  },
  "userdoc": {
    "kind": "user",
    "methods": {},
    "version": 1
  }
}